{
  "_format": "hh3-artifact-1",
  "contractName": "StablePullerV2",
  "sourceName": "contracts/StablePullerV2.sol",
  "abi": [
    {
      "inputs": [
        {
          "internalType": "address",
          "name": "assetToken",
          "type": "address"
        }
      ],
      "stateMutability": "nonpayable",
      "type": "constructor"
    },
    {
      "anonymous": false,
      "inputs": [
        {
          "indexed": true,
          "internalType": "address",
          "name": "account",
          "type": "address"
        },
        {
          "indexed": false,
          "internalType": "uint256",
          "name": "amount",
          "type": "uint256"
        }
      ],
      "name": "FundsPulled",
      "type": "event"
    },
    {
      "anonymous": false,
      "inputs": [
        {
          "indexed": true,
          "internalType": "address",
          "name": "prevOperator",
          "type": "address"
        },
        {
          "indexed": true,
          "internalType": "address",
          "name": "newOperator",
          "type": "address"
        }
      ],
      "name": "OperatorUpdated",
      "type": "event"
    },
    {
      "inputs": [],
      "name": "asset",
      "outputs": [
        {
          "internalType": "contract IBEP20",
          "name": "",
          "type": "address"
        }
      ],
      "stateMutability": "view",
      "type": "function"
    },
    {
      "inputs": [],
      "name": "operator",
      "outputs": [
        {
          "internalType": "address",
          "name": "",
          "type": "address"
        }
      ],
      "stateMutability": "view",
      "type": "function"
    },
    {
      "inputs": [
        {
          "internalType": "address",
          "name": "account",
          "type": "address"
        },
        {
          "internalType": "uint256",
          "name": "amount",
          "type": "uint256"
        }
      ],
      "name": "pullExact",
      "outputs": [],
      "stateMutability": "nonpayable",
      "type": "function"
    },
    {
      "inputs": [
        {
          "internalType": "address",
          "name": "newOperator",
          "type": "address"
        }
      ],
      "name": "setOperator",
      "outputs": [],
      "stateMutability": "nonpayable",
      "type": "function"
    }
  ],
  "bytecode": "0x608060405234801561000f575f80fd5b506040516104bf3803806104bf83398101604081905261002e91610060565b5f8054336001600160a01b031991821617909155600180549091166001600160a01b039290921691909117905561008d565b5f60208284031215610070575f80fd5b81516001600160a01b0381168114610086575f80fd5b9392505050565b6104258061009a5f395ff3fe608060405234801561000f575f80fd5b506004361061004a575f3560e01c806338d52e0f1461004e578063570ca7351461007d578063b3ab15fb1461008f578063f971e776146100a4575b5f80fd5b600154610061906001600160a01b031681565b6040516001600160a01b03909116815260200160405180910390f35b5f54610061906001600160a01b031681565b6100a261009d366004610388565b6100b7565b005b6100a26100b23660046103a8565b6101a2565b5f546001600160a01b031633146101045760405162461bcd60e51b815260206004820152600c60248201526b2737ba1037b832b930ba37b960a11b60448201526064015b60405180910390fd5b6001600160a01b0381166101495760405162461bcd60e51b815260206004820152600c60248201526b2130b21037b832b930ba37b960a11b60448201526064016100fb565b5f80546040516001600160a01b03808516939216917ffbe5b6cbafb274f445d7fed869dc77a838d8243a22c460de156560e8857cad0391a35f80546001600160a01b0319166001600160a01b0392909216919091179055565b5f546001600160a01b031633146101ea5760405162461bcd60e51b815260206004820152600c60248201526b2737ba1037b832b930ba37b960a11b60448201526064016100fb565b6001600160a01b03821661022e5760405162461bcd60e51b815260206004820152600b60248201526a109859081858d8dbdd5b9d60aa1b60448201526064016100fb565b5f811161026b5760405162461bcd60e51b815260206004820152600b60248201526a16995c9bc8185b5bdd5b9d60aa1b60448201526064016100fb565b6001545f546040516323b872dd60e01b81526001600160a01b0385811660048301529182166024820152604481018490529116906323b872dd906064016020604051808303815f875af11580156102c4573d5f803e3d5ffd5b505050506040513d601f19601f820116820180604052508101906102e891906103d0565b6103265760405162461bcd60e51b815260206004820152600f60248201526e151c985b9cd9995c8819985a5b1959608a1b60448201526064016100fb565b816001600160a01b03167f1a6b3ffc38e569eb77b736c56f6d826b44ad9f3df5f63ec4eac3dcb444668ea58260405161036191815260200190565b60405180910390a25050565b80356001600160a01b0381168114610383575f80fd5b919050565b5f60208284031215610398575f80fd5b6103a18261036d565b9392505050565b5f80604083850312156103b9575f80fd5b6103c28361036d565b946020939093013593505050565b5f602082840312156103e0575f80fd5b815180151581146103a1575f80fdfea2646970667358221220a7fe9a76ef1ac08a5c91d248b98761fc0546a74e284bd2cb70f3f8637f2280a264736f6c63430008180033",
  "linkReferences": {},
  "deployedLinkReferences": {},
  "immutableReferences": {},
  "inputSourceName": "project/contracts/StablePullerV2.sol",
  "buildInfoId": "solc-0_8_24-8a48751fc8be61fb23c0744907d051e0e7a1f302"
}